:100000000C9434000C9451000C9451000C94510049
:100010000C9451000C9451000C9451000C9451001C
:100020000C9451000C9451000C9451000C9451000C
:100030000C9451000C9451000C9451000C945100FC
:100040000C9451000C9451000C9451000C945100EC
:100050000C9451000C9451000C9451000C945100DC
:100060000C9451000C94510011241FBECFEFD8E026
:10007000DEBFCDBF12E0A0E0B1E0EEE8F1E102C0EA
:1000800005900D92A834B107D9F722E0A8E4B2E0B8
:1000900001C01D92A435B207E1F70E946B030C94D6
:1000A000C5080C9400000895FFCFCF93DF93EC01B7
:1000B000E881F9810190F081E02D0995CE01DF9171
:1000C000CF910895823051F0833071F0813049F042
:1000D00064E270E084E791E00E94540088E290E0DE
:1000E000089585E290E008958BE290E008958230D3
:1000F00051F0833071F0813049F060E370E084E7C3
:1001000091E00E94540086E290E0089583E290E03E
:10011000089589E290E00895823051F0833071F0C3
:10012000813049F06CE370E084E791E00E94540074
:1001300087E290E0089584E290E008958AE290E0FA
:100140000895833069F4611104C08091C1008F7EED
:1001500005C0613029F48091C100877F8093C10080
:1001600008958091490281110EC081E08093490277
:100170008093C5008FE98093C40086E08093C2001D
:1001800088E18093C1000895CF93C82F0E94B100E9
:100190008091C00085FFFCCFC093C600CF91089529
:1001A000CF93DF9380914802811105C081E0809355
:1001B000810080934802809184002091850090E026
:1001C000FC01F22B8091520290915302E817F9073B
:1001D00030F520914A0230914B0240914C025091EF
:1001E0004D0260914E0270914F02809150029091A9
:1001F00051024F5F5F4F6F4F7F4F8F4F9F4F209345
:100200004A0230934B0240934C0250934D0260934C
:100210004E0270934F028093500290935102F093DC
:100220005302E0935202CF0120914A02282B3091D1
:100230004B02392B40914C0250914D0260914E027D
:1002400070914F028091500290915102DF91CF91B5
:1002500008950F930E94D00004E00E9459060F9168
:1002600008954F925F926F927F928F929F92AF927A
:10027000BF92CF92DF92EF92FF920F931F93CF9393
:10028000DF934B015C010E942901F22FE32F6A01E9
:100290007B018C0124013501770C4408542C320178
:1002A0009401A501642D742D842D942DAF2EBE2EA6
:1002B0000E947506D22FC32F2A013B014C010E94D8
:1002C000290159016A017B018C012D2F3C2FA201CC
:1002D000B301C4010E947E0609F088F7DF91CF9137
:1002E0001F910F91FF90EF90DF90CF90BF90AF9054
:1002F0009F908F907F906F905F904F9008950C9497
:100300003101CF92DF92EF92FF926B017C011C14BE
:100310001D041E041F0464F468EE73E080E090E0A6
:100320000E94310181E0C81AD108E108F108EFCF3D
:10033000FF90EF90DF90CF9008950C9481010C9482
:10034000C400862F0C949F018D3130F064E570E07D
:1003500089EA91E00E9454009927880F991F8851DB
:100360009E4F0895DC011496ED91FC911597208124
:1003700016968C91922F982381E009F480E00895DD
:100380000895DC011296ED91FC91139714968C91CF
:100390009081662311F0892B02C080958923808388
:1003A00008950895DC0195B130E021E0432F50E03D
:1003B00012966D917C911397461757070CF0E9C080
:1003C000FD0183E0389FE00DF11D112443E025B9C4
:1003D0008481881F8827881F892B85B90000000029
:1003E000000000000000000000000000000000000D
:1003F0000000000000000000000015B80000000030
:1004000000000000000025B9848186FB882780F960
:10041000892B85B9000000000000000000000000EA
:1004200000000000000000000000000000000000CC
:10043000000015B80000000000000000000025B911
:10044000848185FB882780F9892B85B9000000000D
:10045000000000000000000000000000000000009C
:100460000000000000000000000015B800000000BF
:1004700000000000000025B9848182958170892BDD
:1004800085B900000000000000000000000000002E
:10049000000000000000000000000000000000005C
:1004A00015B80000000000000000000025B984819C
:1004B00083FB882780F9892B85B9000000000000A4
:1004C000000000000000000000000000000000002C
:1004D000000000000000000015B80000000000004F
:1004E0000000000025B9848182FB882780F9892BD0
:1004F00085B90000000000000000000000000000BE
:1005000000000000000000000000000000000000EB
:1005100015B80000000000000000000025B984812B
:1005200086958170892B85B90000000000000000CD
:1005300000000000000000000000000000000000BB
:1005400000000000000015B80000000000000000DE
:10055000000025B984818170892B85B900000000D5
:10056000000000000000000000000000000000008B
:100570000000000000000000000015B800000000AE
:1005800000000000000041503196411120CF3F5F34
:100590000DCFA05DBE4F1C9261E070E080E090E066
:1005A0000C947F01FF920F931F93CF93DF93EC0185
:1005B0008A819B81DC01ED91FC910280F381E02D29
:1005C000099509E813E18A819B81DC01ED91FC9199
:1005D0000190F081E02D0995882399F001501109CF
:1005E00081F06AE070E080E090E00E947F018A8103
:1005F0009B81DC01ED91FC910280F381E02D099556
:10060000E2CF6C8170E080E090E00E947F011A866A
:1006100000E010E08A819B81DC01ED91FC91028079
:10062000F381E02D09958A819B81DC01ED91FC919C
:100630000190F081E02D0995002E01C0880F0A94E9
:10064000EAF79A85892B8A876C8170E080E090E0D8
:100650000E947F010F5F1F4F08301105D9F66C8192
:1006600070E0660F771F072E000C880B990B0E9415
:100670007F0100E010E0F12C8A819B81DC01ED918B
:10068000FC910280F381E02D09958A819B81DC0138
:10069000ED91FC910190F081E02D0995002E01C0B3
:1006A000880F0A94EAF7F82A6C8170E080E090E005
:1006B0000E947F010F5F1F4F08301105E9F6BAE075
:1006C000FB1611F08EE601C089E7DF91CF911F91F3
:1006D0000F91FF900895CF93DF93CDB7DEB7C05948
:1006E000D1400FB6F894DEBF0FBECDBF82E090E0E0
:1006F0000E94A401DC011C9182E090E00E94A40110
:10070000FC0101817E01F4E7EF1AFEEFFF0A8EE2A1
:1007100092E0D7018D939C93812F0E946200F70194
:1007200093838283CC24C3948C2D002E01C0880F28
:100730000A94EAF78483602F812F0E94A100812F01
:100740000E948C00FC018081D70114969C91149723
:10075000982B90838EE392E08D939C9383E090E0BE
:100760000E94A401FC01D08083E090E00E94A401DB
:10077000DC011196BC908E010B571E4F86E292E071
:10078000F801918380838D2D0E946200D801139619
:100790009C938E9312978D2D0E947700F80195837C
:1007A00084830B2C01C0CC0C0A94EAF7C6826B2D13
:1007B0008D2D0E94A1008D2D0E948C00FC012081B6
:1007C000D80116969C91169790959223908386E374
:1007D00092E08D939C93C658DE4FF982E882CA5707
:1007E000D140C458DE4F19830883CC57D14080E5EF
:1007F000C258DE4F8883CE57D1408AE0C158DE4FC1
:100800008883CF57D140C058DE4F1882C058D1409E
:10081000CF57DE4F19821882C158D140CD57DE4FD5
:100820001882C358D140CC57DE4F1882C458D140EB
:1008300062E370E080E090E00E949D0162E370E07E
:1008400080E090E00E949D018CE090E09C838B838F
:10085000CF5CDE4F1882C153D14086E492E09A8388
:100860008983209A15B861E070E080E090E00E94F2
:100870009D0110E0E12CF12CC12CD12C2E01B5E210
:100880004B0E511C3E01E9E86E1AEEEF7E0A17018D
:10089000F1E03F222114310409F076C1CE018658DF
:1008A0009E4F0E94D202893709F05FC1CC57DE4FBC
:1008B0002881C458D140D3011C92211111C0E6E710
:1008C000F1E0EC0FFD1FC858DE4FF983E883C857ED
:1008D000D14080E3CA58DE4F8883C657D1402EC02E
:1008E00030E0C858DE4F79826882C857D1404091C5
:1008F00007016091040170910501C9010E942F0652
:100900008A301CF04A50840F01C0805DC858DE4F09
:10091000E881F981C857D1403197C858DE4FF98333
:10092000E883C857D140808360910401709105012C
:10093000C9010E942F069B01672BC9F680910B010C
:10094000882309F45AC080910401909105018830F0
:10095000910531F188F4029791F5C858DE4FE8818E
:10096000F981C857D1403197C858DE4FF983E883E1
:10097000C857D14082E631C08A309105F1F14097E5
:10098000F1F4C858DE4FE881F981C857D14031975A
:10099000C858DE4FF983E883C857D14088E71DC0A7
:1009A000C858DE4FE881F981C857D1403197C858FF
:1009B000DE4FF983E883C857D1408FE60EC0C85890
:1009C000DE4FE881F981C857D1403197C858DE4FD2
:1009D000F983E883C857D1408FE38083C858DE4F3E
:1009E000E881F981C857D1403197C858DE4FF98363
:1009F000E883C857D14080E3808380910901882330
:100A000079F0C858DE4FE881F981C857D140319755
:100A1000C858DE4FF983E883C857D1408BE2808302
:100A2000C858DE4F08811981C857D140809108010C
:100A3000811102C058011AC0A0900201B0900301B8
:100A4000F801CF01801B910B21912111FACFA81A37
:100A5000B90A1A141B0474F76091060180E091E052
:100A60000E945500F1E0AF1AB108F3CFD5016D91A6
:100A70005D01662329F080E091E00E945500F6CFE9
:100A80008091080181111AC0209102013091030167
:100A9000F801CF01801B910B41914111FACF8901DF
:100AA000081B190B101611064CF46091060180E02A
:100AB00091E00E94550001501109F4CF10920301FA
:100AC000109202016AE080E091E00E945500DC0192
:100AD000ED91FC910280F381E02D0995CC57DE4F1A
:100AE0000881C458D14010E0B801012E000C880BD9
:100AF000990B0E94A3074B015C0120E030E040EA23
:100B000051E40E94F40687FD0DC020E030E048EC7F
:100B100052E4C501B4010E94530818162CF404E6EF
:100B200010E002C004E110E0B801110F880B990B2E
:100B30000E94A30720E030E040EA51E40E948706CB
:100B400020E030E040EA52E40E94F90620E030E084
:100B50004FE753EC0E94580820E030E04FE753E4A1
:100B60000E9488060E946B07162FFE0131961482A0
:100B70001583168233964E165F06C9F7B1E0CF5C37
:100B8000DE4FB883C153D140C7019F71009721F058
:100B90008039914011F512C0FE01319620E4248382
:100BA000AFEFA583168233964E165F06B9F7B1E014
:100BB000CF5CDE4FB883C153D140EACFFE013196FE
:100BC00014821583168233964E165F06C9F7E1E04C
:100BD000CF5CDE4FE883C153D1402328A1F5C60185
:100BE0000B966CE070E00E9443069927FC01EE0F23
:100BF000FF1F8E0F9F1FE1E0F0E0EC0FFD1FE80FDD
:100C0000F91F148215821682F601FF27CF01880F83
:100C1000991FE80FF91F81E090E08C0F9D1FE80FEE
:100C2000F91F90E49483AFEFA5831682B1E0CF5C07
:100C3000DE4FB883C153D140C60101966CE070E02D
:100C40000E9443066C01E11004C0CE0101960E948F
:100C5000D201EFEFEE1AFE0AE894F7F818CEAA1BBD
:100C6000BB1B51E107C0AA1FBB1FA617B70710F097
:100C7000A61BB70B881F991F5A95A9F780959095C9
:100C8000BC01CD01089597FB072E16F4009407D000
:100C900077FD09D00E942F0607FC05D03EF4909501
:100CA00081959F4F0895709561957F4F089597FBAB
:100CB00010F8169400080F93083098F00850232F6E
:100CC000342F452F562F672F782F892F902DF4CF53
:100CD0000594979587957795679557954795379597
:100CE00027950A95AAF70F9108952A0D3B1D4C1DD3
:100CF0005D1D6E1D7F1D801F911F08952A153B05E8
:100D00004C055D056E057F058007910708955058D5
:100D1000BB27AA270E949F060C9419080E940B0863
:100D200038F00E94120820F039F49F3F19F426F49D
:100D30000C9408080EF4E095E7FB0C940208E92FE8
:100D40000E942A0858F3BA176207730784079507A9
:100D500020F079F4A6F50C944C080EF4E0950B2ED7
:100D6000BA2FA02D0B01B90190010C01CA01A001FD
:100D70001124FF27591B99F0593F50F4503E68F158
:100D80001A16F040A22F232F342F4427585FF3CF99
:100D9000469537952795A795F0405395C9F77EF46A
:100DA0001F16BA0B620B730B840BBAF09150A1F0B3
:100DB000FF0FBB1F661F771F881FC2F70EC0BA0F39
:100DC000621F731F841F48F4879577956795B795C1
:100DD000F7959E3F08F0B0CF9395880F08F09927BC
:100DE000EE0F9795879508950E94DE0708F481E03D
:100DF00008950E940D070C9419080E94120858F0DB
:100E00000E940B0840F029F45F3F29F00C9402087F
:100E100051110C944D080C9408080E942A0868F39C
:100E20009923B1F3552391F3951B550BBB27AA27A3
:100E300062177307840738F09F5F5F4F220F331FDD
:100E4000441FAA1FA9F335D00E2E3AF0E0E832D0A5
:100E500091505040E695001CCAF72BD0FE2F29D0A8
:100E6000660F771F881FBB1F261737074807AB077A
:100E7000B0E809F0BB0B802DBF01FF2793585F4FEF
:100E80003AF09E3F510578F00C9402080C944D08FE
:100E90005F3FE4F3983ED4F3869577956795B795D1
:100EA000F7959F5FC9F7880F911D9695879597F9DC
:100EB0000895E1E0660F771F881FBB1F6217730755
:100EC0008407BA0720F0621B730B840BBA0BEE1F6A
:100ED00088F7E09508950E9472076894B1110C9408
:100EE0004D0808950E94320888F09F5798F0B92F56
:100EF0009927B751B0F0E1F0660F771F881F991F4F
:100F00001AF0BA95C9F714C0B13091F00E944C089C
:100F1000B1E008950C944C08672F782F8827B85FAC
:100F200039F0B93FCCF3869577956795B395D9F7A6
:100F30003EF490958095709561957F4F8F4F9F4FB0
:100F40000895E89409C097FB3EF4909580957095BC
:100F500061957F4F8F4F9F4F9923A9F0F92F96E905
:100F6000BB279395F695879577956795B795F1117A
:100F7000F8CFFAF4BB0F11F460FF1BC06F5F7F4F17
:100F80008F4F9F4F16C0882311F096E911C0772329
:100F900021F09EE8872F762F05C0662371F096E832
:100FA000862F70E060E02AF09A95660F771F881F01
:100FB000DAF7880F9695879597F90895990F0008A5
:100FC000550FAA0BE0E8FEEF16161706E807F9071B
:100FD000C0F012161306E407F50798F0621B730BB6
:100FE000840B950B39F40A2661F0232B242B252B37
:100FF00021F408950A2609F4A140A6958FEF811DDA
:10100000811D089597F99F6780E870E060E008957A
:101010009FEF80EC089500240A9416161706180610
:101020000906089500240A941216130614060506EC
:101030000895092E0394000C11F4882352F0BB0F7D
:1010400040F4BF2B11F460FF04C06F5F7F4F8F4FE0
:101050009F4F089557FD9058440F551F59F05F3F1B
:1010600071F04795880F97FB991F61F09F3F79F0CA
:1010700087950895121613061406551FF2CF46954C
:10108000F1DF08C0161617061806991FF1CF8695CE
:101090007105610508940895E894BB2766277727B2
:1010A000CB0197F908950E94DE0708F48FEF0895A9
:1010B0000E946B080C9419080E940B0838F00E94DB
:1010C000120820F0952311F00C9402080C940808E3
:1010D00011240C944D080E942A0870F3959FC1F3C7
:1010E000950F50E0551F629FF001729FBB27F00DD6
:1010F000B11D639FAA27F00DB11DAA1F649F66272B
:10110000B00DA11D661F829F2227B00DA11D621F79
:10111000739FB00DA11D621F839FA00D611D221F33
:10112000749F3327A00D611D231F849F600D211D17
:10113000822F762F6A2F11249F5750409AF0F1F09A
:1011400088234AF0EE0FFF1FBB1F661F771F881F03
:1011500091505040A9F79E3F510580F00C94020831
:101160000C944D085F3FE4F3983ED4F38695779551
:101170006795B795F795E7959F5FC1F7FE2B880FA9
:0E118000911D9695879597F90895F894FFCFE5
:10118E00E40100000A002041010000005B003A006B
:10119E000A5465737420737563636573733A200024
:1011AE00207465737420776572652073756363654B
:1011BE00737366756C6C0A000A544553542046418D
:1011CE00494C5552453A200020746573742077655A
:1011DE007265204E4F542073756363657373667525
:1011EE006C6C0A005B7472616E73706172656E7402
:1011FE005D002C002F686F6D652F757365722F68FB
:10120E00776C69622F6C6962726172792F74617288
:10121E00676574732F68776C69622D61746D65678D
:10122E00613332382E687070002F686F6D652F75C0
:10123E007365722F68776C69622F6C696272617266
:10124E00792F746172676574732F68776C69622D7C
:10125E0061726475696E6F2D756E6F2E6870700099
:10126E0000000000A1015300030003010302030369
:10127E000304030503060307010001010102010334
:10128E00010401050200020102020203020402052A
:10129E000205020403000301010501050104010317
:1012AE00010200000000B201C00100000000C101F7
:1012BE00D10100000000B201C00100000000C10118
:0812CE00D10100000000D20173
:00000001FF
