:100000000C9434000C9451000C9451000C94510049
:100010000C9451000C9451000C9451000C9451001C
:100020000C9451000C9451000C9451000C9451000C
:100030000C9451000C9451000C9451000C945100FC
:100040000C9451000C9451000C9451000C945100EC
:100050000C9451000C9451000C9451000C945100DC
:100060000C9451000C94510011241FBECFEFD8E026
:10007000DEBFCDBF11E0A0E0B1E0E8E5F1E102C0F4
:1000800005900D92A03EB107D9F721E0A0EEB1E0B6
:1000900001C01D92AC3EB207E1F70E948A030C94A6
:1000A000AA080C940000823051F0833071F0813046
:1000B00049F064E270E08CE091E00E94690288E21D
:1000C00090E0089585E290E008958BE290E0089535
:1000D000823051F0833071F0813049F060E370E09C
:1000E0008CE091E00E94690286E290E0089583E24C
:1000F00090E0089589E290E00895823051F08330D5
:1001000071F0813049F06CE370E08CE091E00E9486
:10011000690287E290E0089584E290E008958AE21F
:1001200090E00895833069F4611104C08091C100AA
:100130008F7E05C0613029F48091C100877F809354
:10014000C10008958D3130F064E570E081E491E004
:100150000E9469029927880F991F88589E4F089519
:10016000FF920F931F93CF93DF93EC018A819B81C2
:10017000DC01ED91FC910280F381E02D099509E805
:1001800013E18A819B81DC01ED91FC910190F0816A
:10019000E02D0995882399F00150110981F06AE05A
:1001A00070E080E090E00E9445038A819B81DC0141
:1001B000ED91FC910280F381E02D0995E2CF6C81F5
:1001C00070E080E090E00E944503188600E010E0B7
:1001D0008A819B81DC01ED91FC910280F381E02D0D
:1001E00009958A819B81DC01ED91FC910190F08160
:1001F000E02D0995002E01C0880F0A94EAF7988532
:10020000892B88876C8170E080E090E00E94450334
:100210000F5F1F4F08301105D9F66C8170E0660F33
:10022000771F072E000C880B990B0E94450300E0F6
:1002300010E0F12C8A819B81DC01ED91FC91028020
:10024000F381E02D09958A819B81DC01ED91FC9180
:100250000190F081E02D0995002E01C0880F0A94CD
:10026000EAF7F82A6C8170E080E090E00E94450394
:100270000F5F1F4F08301105E9F6BAE0FB1202C00C
:10028000888501C080E0DF91CF911F910F91FF9091
:1002900008950F9370E0FB013196DF01AA0FBB1F99
:1002A000EA0FFB1FE80FF91F4083FB01EE0FFF1F52
:1002B0006E0F7F1FFC01E60FF71F2483058321E0EB
:1002C000FC0122830F910895CF93DF93DC0195B158
:1002D00040E0ED01C15DDE4F21E0642F70E0E88178
:1002E000F9816E177F070CF0E9C0FD0183E0489F9C
:1002F000E00DF11D112453E025B98381881F882763
:10030000881F892B85B90000000000000000000054
:1003100000000000000000000000000000000000DD
:100320000000000015B80000000000000000000000
:1003300025B9838186FB882780F9892B85B9000040
:1003400000000000000000000000000000000000AD
:1003500000000000000000000000000015B80000D0
:10036000000000000000000025B9838185FB88277C
:1003700080F9892B85B90000000000000000000012
:10038000000000000000000000000000000000006D
:100390000000000015B80000000000000000000090
:1003A00025B9838182958170892B85B90000000071
:1003B000000000000000000000000000000000003D
:1003C0000000000000000000000015B80000000060
:1003D00000000000000025B9838183FB882780F995
:1003E000892B85B90000000000000000000000001B
:1003F00000000000000000000000000000000000FD
:10040000000015B80000000000000000000025B941
:10041000338132FB332730F9392B35B90000000026
:1004200000000000000000000000000000000000CC
:100430000000000000000000000015B800000000EF
:1004400000000000000025B9338136953170392B4A
:1004500035B90000000000000000000000000000AE
:10046000000000000000000000000000000000008C
:1004700015B80000000000000000000025B933811D
:100480003170392B35B90000000000000000000079
:10049000000000000000000000000000000000005C
:1004A0000000000015B8000000000000000000007F
:1004B00051503196511120CF4F5F0FCF12961C92A1
:1004C00061E070E080E090E0DF91CF910C94450313
:1004D0000895FFCFCF93DF93EC01E881F98101907C
:1004E000F081E02D0995CE01DF91CF9108958091A3
:1004F000E10181110EC081E08093E1018093C5008C
:100500008FE98093C40086E08093C20088E18093E5
:10051000C1000895CF93C82F0E9477028091C00038
:1005200085FFFCCFC093C600CF910895CF93DF9392
:100530008091E001811105C081E08093810080936A
:10054000E001809184002091850090E0FC01F22B75
:100550008091EA019091EB01E817F90730F52091BD
:10056000E2013091E3014091E4015091E501609195
:10057000E6017091E7018091E8019091E9014F5FF8
:100580005F4F6F4F7F4F8F4F9F4F2093E20130930C
:10059000E3014093E4015093E5016093E601709319
:1005A000E7018093E8019093E901F093EB01E09378
:1005B000EA01CF012091E201282B3091E301392B90
:1005C0004091E4015091E5016091E6017091E701ED
:1005D0008091E8019091E901DF91CF9108950F9307
:1005E0000E94960204E00E943E060F9108954F92E9
:1005F0005F926F927F928F929F92AF92BF92CF92B3
:10060000DF92EF92FF920F931F93CF93DF934B01F3
:100610005C010E94EF02F22FE32F6A017B018C0143
:1006200024013501770C4408542C32019401A501B2
:10063000642D742D842D942DAF2EBE2E0E945A064B
:10064000D22FC32F2A013B014C010E94EF02590116
:100650006A017B018C012D2F3C2FA201B301C40143
:100660000E94630609F088F7DF91CF911F910F91E7
:10067000FF90EF90DF90CF90BF90AF909F908F90C2
:100680007F906F905F904F9008950C94F702CF92F7
:10069000DF92EF92FF926B017C011C141D041E047B
:1006A0001F0464F468EE73E080E090E00E94F702BB
:1006B00081E0C81AD108E108F108EFCFFF90EF9070
:1006C000DF90CF9008950C9447030C948A02862FF4
:1006D0000C946503DC011496ED91FC911597208133
:1006E00016968C91922F982381E009F480E008956A
:1006F0000895DC011296ED91FC91139714968C915C
:100700009081662311F0892B02C080958923808314
:1007100008950895CF93DF93CDB7DEB7CE58D1407B
:100720000FB6F894DEBF0FBECDBF82E090E00E940E
:10073000A200DC011C9182E090E00E94A200FC017A
:1007400001817E01F6E7EF1AFEEFFF0A8CEC91E0E3
:10075000D7018D939C93812F0E945300F7019383BF
:100760008283CC24C3948C2D002E01C0880F0A9460
:10077000EAF78483602F812F0E949200812F0E94CC
:100780007D00FC018081D70114969C911497982BD1
:1007900090838CED91E08D939C9383E090E00E9498
:1007A000A200FC01D08083E090E00E94A200DC0166
:1007B0001196BC908E010D571E4F84EC91E0F8010C
:1007C000918380838D2D0E945300D80113969C93B2
:1007D0008E9312978D2D0E946800F8019583848373
:1007E0000B2C01C0CC0C0A94EAF7C6826B2D8D2D20
:1007F0000E9492008D2D0E947D00FC012081D80175
:1008000016969C91169790959223908384ED91E093
:100810008D939C93C658DE4FF982E882CA57D14027
:10082000C458DE4F19830883CC57D14080E5C258A5
:10083000DE4F8883CE57D1408AE0C158DE4F88838F
:10084000CF57D140C058DE4F1882C058D140CF5743
:10085000DE4F1882C158D140CE57DE4F1882C258A1
:10086000D14062E370E080E090E00E94630362E3C5
:1008700070E080E090E00E9463031B828CE090E0D7
:10088000C05DDE4F99838883C053D14086EB91E0F1
:100890009A838983209A15B861E070E080E090E047
:1008A0000E94630310E0E12CF12CC12CD12C8CE0D0
:1008B000682E712C4701B1E09B228114910409F04C
:1008C00064C1CE0186589E4F0E94B000882309F46F
:1008D0004FC1282F30E0C958DE4F1882C757D1408A
:1008E000E7E7F1E0EC0FFD1FC858DE4FF983E8831E
:1008F000C857D140409107016091040170910501F2
:10090000C9010E9414068A301CF04A50840F01C0AD
:10091000805DC858DE4FE881F981C857D1403197D2
:10092000C858DE4FF983E883C857D1408083E091EF
:100930000401F0910501C901BF010E9414069B0149
:10094000672BC1F680910B01882309F459C0E83068
:10095000F10541F188F43297A9F5C858DE4FE881D6
:10096000F981C857D1403197C858DE4FF983E883E1
:10097000C857D14082E624C0EA30F10509F440C0EE
:10098000709701F5C858DE4FE881F981C857D1400A
:100990003197C858DE4FF983E883C857D14098E7AC
:1009A00090831FC0C858DE4FE881F981C857D140F5
:1009B0003197C858DE4FF983E883C857D1408FE696
:1009C00080830FC0C858DE4FE881F981C857D140F5
:1009D0003197C858DE4FF983E883C857D140AFE359
:1009E000A083C858DE4FE881F981C857D1403197BC
:1009F000C858DE4FF983E883C857D140B0E3B083CD
:100A000080910901882379F0C858DE4FE881F98187
:100A1000C857D1403197C858DE4FF983E883C8578B
:100A2000D1408BE28083C858DE4F08811981C857B6
:100A3000D14080910801811102C058011AC0A090D4
:100A40000201B0900301F801CF01801B910B2191AD
:100A50002111FACFA81AB90A1A141B0474F760916D
:100A6000060180E091E00E946A0291E0A91AB108B3
:100A7000F3CFD5016D915D01662329F080E091E00F
:100A80000E946A02F6CF8091080181111AC020915C
:100A9000020130910301F801CF01801B910B4191BC
:100AA0004111FACF8901081B190B101611064CF4DD
:100AB0006091060180E091E00E946A0201501109F4
:100AC000F4CF10920301109202016AE080E091E0FD
:100AD0000E946A02DC01ED91FC910280F381E02D1D
:100AE0000995CE57DE4F0881C258D14010E0B801B9
:100AF000012E000C880B990B0E9488071B012C010A
:100B000020E030E040EA51E40E94D90687FD0DC0A4
:100B100020E030E048EC52E4C201B1010E94380804
:100B200018162CF404E610E002C004E110E0B8014D
:100B3000110F880B990B0E94880720E030E040EAF3
:100B400051E40E946C0620E030E040EA52E40E944A
:100B5000DE0620E030E04FE753EC0E943D0820E045
:100B600030E04FE753E40E946D060E945007162FB5
:100B7000B12C00E0212F40E06B2DCE0101960E94A8
:100B80004901B394BCE0BB12F4CF5701EFE1BE22A0
:100B9000A114B10431F0F0E9AF16F1E0BF06E1F4C1
:100BA0000EC0512C00E02FEF40E4652DCE010196E0
:100BB0000E94490153948CE05812F4CFECCFB12C31
:100BC00000E0212F40E06B2DCE0101960E944901EB
:100BD000B3949CE0B912F4CF8928D1F4C6010B96E6
:100BE000B3010E94280600E020E040E0682FCE011B
:100BF00001960E9449012FEF40E46C2DCE01019631
:100C00000E944901C6010196B3010E9428066C01A9
:100C1000E11004C0CE0101960E946401AFEFEA1A10
:100C2000FA0AE894F7F846CEAA1BBB1B51E107C0AD
:100C3000AA1FBB1FA617B70710F0A61BB70B881F6C
:100C4000991F5A95A9F780959095BC01CD010895FB
:100C500097FB072E16F4009407D077FD09D00E9469
:100C6000140607FC05D03EF4909581959F4F08959A
:100C7000709561957F4F089597FB10F816940008C2
:100C80000F93083098F00850232F342F452F562FFC
:100C9000672F782F892F902DF4CF059497958795FE
:100CA0007795679557954795379527950A95AAF7AC
:100CB0000F9108952A0D3B1D4C1D5D1D6E1D7F1D5E
:100CC000801F911F08952A153B054C055D056E0593
:100CD0007F058007910708955058BB27AA270E94D7
:100CE00084060C94FE070E94F00738F00E94F70774
:100CF00020F039F49F3F19F426F40C94ED070EF41C
:100D0000E095E7FB0C94E707E92F0E940F0858F3E2
:100D1000BA17620773078407950720F079F4A6F5E0
:100D20000C9431080EF4E0950B2EBA2FA02D0B0178
:100D3000B90190010C01CA01A0011124FF27591B20
:100D400099F0593F50F4503E68F11A16F040A22F26
:100D5000232F342F4427585FF3CF46953795279597
:100D6000A795F0405395C9F77EF41F16BA0B620B96
:100D7000730B840BBAF09150A1F0FF0FBB1F661FDD
:100D8000771F881FC2F70EC0BA0F621F731F841F20
:100D900048F4879577956795B795F7959E3F08F046
:100DA000B0CF9395880F08F09927EE0F9795879508
:100DB00008950E94C30708F481E008950E94F20696
:100DC0000C94FE070E94F70758F00E94F00740F0CD
:100DD00029F45F3F29F00C94E70751110C94320875
:100DE0000C94ED070E940F0868F39923B1F3552383
:100DF00091F3951B550BBB27AA276217730784072E
:100E000038F09F5F5F4F220F331F441FAA1FA9F3C3
:100E100035D00E2E3AF0E0E832D091505040E695B1
:100E2000001CCAF72BD0FE2F29D0660F771F881F12
:100E3000BB1F261737074807AB07B0E809F0BB0B05
:100E4000802DBF01FF2793585F4F3AF09E3F510519
:100E500078F00C94E7070C9432085F3FE4F3983E77
:100E6000D4F3869577956795B795F7959F5FC9F702
:100E7000880F911D9695879597F90895E1E0660F83
:100E8000771F881FBB1F621773078407BA0720F0FC
:100E9000621B730B840BBA0BEE1F88F7E095089565
:100EA0000E9457076894B1110C94320808950E946B
:100EB000170888F09F5798F0B92F9927B751B0F0CD
:100EC000E1F0660F771F881F991F1AF0BA95C9F7CE
:100ED00014C0B13091F00E943108B1E008950C9433
:100EE0003108672F782F8827B85F39F0B93FCCF3E6
:100EF000869577956795B395D9F73EF4909580954B
:100F0000709561957F4F8F4F9F4F0895E89409C06A
:100F100097FB3EF490958095709561957F4F8F4F2C
:100F20009F4F9923A9F0F92F96E9BB279395F69542
:100F3000879577956795B795F111F8CFFAF4BB0FC0
:100F400011F460FF1BC06F5F7F4F8F4F9F4F16C024
:100F5000882311F096E911C0772321F09EE8872FAE
:100F6000762F05C0662371F096E8862F70E060E06A
:100F70002AF09A95660F771F881FDAF7880F9695E3
:100F8000879597F90895990F0008550FAA0BE0E887
:100F9000FEEF16161706E807F907C0F0121613063B
:100FA000E407F50798F0621B730B840B950B39F47B
:100FB0000A2661F0232B242B252B21F408950A26E1
:100FC00009F4A140A6958FEF811D811D089597F921
:100FD0009F6780E870E060E008959FEF80EC0895DF
:100FE00000240A9416161706180609060895002408
:100FF0000A9412161306140605060895092E039482
:10100000000C11F4882352F0BB0F40F4BF2B11F4F5
:1010100060FF04C06F5F7F4F8F4F9F4F089557FD54
:101020009058440F551F59F05F3F71F04795880F56
:1010300097FB991F61F09F3F79F0879508951216ED
:1010400013061406551FF2CF4695F1DF08C0161699
:1010500017061806991FF1CF86957105610508944A
:101060000895E894BB2766277727CB0197F9089561
:101070000E94C30708F48FEF08950E9450080C9453
:10108000FE070E94F00738F00E94F70720F0952332
:1010900011F00C94E7070C94ED0711240C9432081E
:1010A0000E940F0870F3959FC1F3950F50E0551FF4
:1010B000629FF001729FBB27F00DB11D639FAA27AD
:1010C000F00DB11DAA1F649F6627B00DA11D661FFC
:1010D000829F2227B00DA11D621F739FB00DA11D1D
:1010E000621F839FA00D611D221F749F3327A00DD7
:1010F000611D231F849F600D211D822F762F6A2F73
:1011000011249F5750409AF0F1F088234AF0EE0FD7
:10111000FF1FBB1F661F771F881F91505040A9F704
:101120009E3F510580F00C94E7070C9432085F3F16
:10113000E4F3983ED4F3869577956795B795F79540
:10114000E7959F5FC1F7FE2B880F911D96958795B8
:0811500097F90895F894FFCF10
:10115800BC0100000A002041010000002F686F6DEB
:10116800652F757365722F68776C69622F6C696279
:10117800726172792F746172676574732F68776C06
:1011880069622D61746D6567613332382E687070DD
:10119800002F686F6D652F757365722F68776C699E
:1011A800622F6C6962726172792F746172676574FB
:1011B800732F68776C69622D61726475696E6F2D23
:1011C800756E6F2E6870700003000301030203033D
:1011D80003040305030603070100010101020103DB
:1011E80001040105020002010202020302040205D1
:1011F80002050204030003010105010501040103BE
:10120800010200000000640100000000670368029A
:10121800000000006A0378030000000079038903D6
:10122800000000006A0378030000000079038903C6
:00000001FF
